:020000040800F2
:1000000030080020E5010008393D0008D934000817
:10001000353D000879090008294600080000000065
:1000200000000000000000000000000089410008FE
:100030007D09000800000000794100088D4100089A
:10004000FF010008FF010008FF010008FF01000890
:10005000FF010008FF010008FF010008FF01000880
:10006000FF010008FF010008FF010008FF01000870
:10007000FF010008FF010008FF010008FF01000860
:10008000FF010008FF010008FF010008FF01000850
:1000900000000000FF010008FF010008FF01000848
:1000A000FF010008FF010008FF010008B54100083A
:1000B000FF010008FF010008FF010008FF01000820
:1000C000FF010008FF010008FF010008FF01000810
:1000D000FF010008FF010008FF010008FF01000800
:1000E000FF010008FF010008FF010008FF010008F0
:1000F000FF0100080000000000000000FF010008F0
:10010000FF010008FF0100087D410008FF01000811
:10011000FF010008FF010008FF010008FF010008BF
:10012000FF010008FF010008FF010008FF010008AF
:10013000FF010008FF01000800F002F800F042F89B
:100140000AA090E8000C82448344AAF10107DA4532
:1001500001D100F037F8AFF2090EBAE80F0013F042
:10016000010F18BFFB1A43F001031847544E00005B
:10017000744E0000103A24BF78C878C1FAD85207EC
:1001800024BF30C830C144BF04680C607047000011
:100190000023002400250026103A28BF78C1FBD890
:1001A000520728BF30C148BF0B607047752900F067
:1001B0001581732900F08782002070471FB51FBD8D
:1001C00010B510BD00F083FA1146FFF7F7FF04F0F9
:1001D0002DFA00F0A1FA03B4FFF7F2FF03BC00F020
:1001E000A9FA00000948804709480047FEE7FEE7F2
:1001F000FEE7FEE7FEE7FEE7FEE7FEE7FEE7FEE7D7
:1002000004480549054A064B70470000B141000803
:10021000390100083002002030080020300400209E
:100220003004002053EA020C00F069802DE9F04B05
:100230004FF00006002B1FBFB3FA83F503FA05F455
:1002400024FA05F65E4012BF1643B2FA82F502FAAE
:1002500005F4C5F120051EBF22FA05FC44EA0C0492
:10026000203556EA044C4FEA144418BF641C4FF082
:1002700000084FF00009904271EB030C39D30029BC
:1002800019BFB1FA81F701FA07F6B0FA80F700FA60
:1002900007F6C7F120071EBF20FA07FC46EA0C0646
:1002A0002037B6FBF4FCA7EB0507103F07F01F0B48
:1002B000CBF120062CFA06F60CFA0BFB44BFB34632
:1002C0000026202FA4BF5E464FF0000B5BEA060C11
:1002D00008BF4FF0010B19EB0B0948EB0608ABFB0D
:1002E000027C06FB02CC0BFB03CCC01B71EB0C01A8
:1002F000C1E70B46024641464846BDE8F08B13B5C0
:100300004FF000004FF00001AFF30080BDE81C404B
:10031000704700000FB41CB5074B06AA7B44694622
:100320000090059800F0A5F90020694600F0B4F9A6
:100330001CBC5DF814FB00007903000070B5044696
:1003400085690068C10601D5302600E02026C00777
:1003500007D070BDD4E9012130469047206A401C87
:1003600020626D1EF6D570BD70B5044685690078B3
:10037000C00707D170BDD4E9012120209047206A31
:10038000401C20626D1EF6D570BD70B50C4605464A
:10039000012A05D02878800600D5EA69002302E00A
:1003A000012305E05B1C934202D2E05C0028F9D1F6
:1003B000A869E618C01AA861286A18442862284665
:1003C000FFF7BCFF04E0D5E9012114F8010B9047C9
:1003D000B442F8D32846FFF7C7FF70BD2DE9F041BE
:1003E0000646002410687529314616A510D0AFF3D3
:1003F0000080002802DA404213A507E031688A072E
:1004000001D512A502E0490704D511A5012401E098
:10041000AFF3008000210A2206F1240709E0B0FBB7
:10042000F2FCB0FBF2F302FB1C00303078541846AB
:10043000491C0028F3D123462A463046BDE8F04146
:1004400000F0B9B8000000002D0000002B000000F3
:10045000200000002DE9F0474FF0000A89460446CD
:10046000C0F820A02046E1688847002876D02528DB
:1004700006D0D4E901219047206A401C2062F1E7B0
:10048000E168204600258847C4F81CA006460027DE
:10049000C4F818A02A2E09D0304604F01AF938B34F
:1004A00004EB8708303EC8F8186019E059F8041BBF
:1004B000204604EB87029161E1688847012F0646D8
:1004C00018D1E069002820DA25F020051DE0D8F8D1
:1004D000180000EB800006EB40003038C8F8180028
:1004E0002046E1688847064604F0F3F80028EED17C
:1004F000012F0AD02E2E08D12046E16888477F1CA4
:100500000646022F45F02005C4DBA069002803DA67
:10051000404245F00105A061E80701D025F0100533
:10052000B6B1A6F14100192802D8203645F400657D
:100530004A463146204625604D46FFF737FE58B102
:10054000012806D0ED1D25F0070000F1080989E714
:1005500004E005F1040985E730468AE7206ABDE832
:10056000F0874FF0000200B51346944696462039B6
:1005700022BFA0E80C50A0E80C50B1F12001BFF45C
:10058000F7AF090728BFA0E80C5048BF0CC05DF8C2
:1005900004EB890028BF40F8042B08BF704748BF10
:1005A00020F8022B11F0804F18BF00F8012B704784
:1005B0007047704770472DE9F0470D4699469246BF
:1005C000044600F124080168880604D5E06921F09A
:1005D0001001216000E00120A84201DD471B00E07E
:1005E0000027A1697A1902EB0900081AA061207896
:1005F000C00602D42046FFF7A1FE002608E0D4E999
:1006000001211AF806009047206A401C761C2062DF
:100610004E45F4DB2078C0060AD52046FFF78EFE53
:1006200006E0D4E9012130209047206A401C206276
:10063000381EA7F10107F4DC07E0D4E9012118F81E
:1006400005009047206A401C2062281EA5F1010584
:10065000F3DC2046FFF788FE2078000602D5022052
:10066000BDE8F0870120FBE701694A1C02610878B8
:10067000704700B58FB0CDE90131002105910549E2
:100680007944CDE9031011466846FFF7E3FE0FB049
:1006900000BD0000E5FFFFFF0A6802F8010B0A60D9
:1006A000704710B5436913B1AFF3008001E0FFF765
:1006B0006CFE012010BD127800F124010A700022A6
:1006C0004A700122EDE711684FF0FF32E9E7754605
:1006D00000F02CF8AE4605006946534620F00700AE
:1006E000854618B020B5FFF78BFDBDE820404FF0E0
:1006F00000064FF000074FF000084FF0000BAC462B
:10070000ACE8C009ACE8C009ACE8C009ACE8C00975
:1007100021F007018D46704710B50446AFF3008005
:100720002046BDE81040FFF756BD00000048704766
:100730001000002001491820ABBEFEE72600020091
:1007400070470000B0B50446002021688B688A68B5
:1007500013F0020F37D112F0010208BFB0BD886854
:1007600000F0050001282FD188684FF6E872C7F61F
:10077000FF72104040F0020088600320086000F023
:100780004BFD05462068806810F0010F04BF002073
:10079000B0BD05E0806810F0010F04BF0020B0BDBF
:1007A00000F03AFD411B20680229F3D9816811F05D
:1007B000010FEFD0A06D40F01000A065E06D40F09B
:1007C0000100E0650120B0BDA06D40F01000A06503
:1007D000E06D40F00100E0650120B0BD70B582B071
:1007E00004460020019021688A6812F0010F5FD151
:1007F00088684FF6E876C7F6FF7606F12F021042BA
:100800000AD0A06D40F01000A065E06D40F001003E
:10081000E065012002B070BD8868304040F0010002
:10082000886042F20870C4F20100006810F4000F02
:1008300016D040F20C0042F66351C2F20000C0F242
:100840003E5100688009A0FB0101012000EB9110DE
:1008500002E000BF01980138019001980028F9D109
:10086000607E012826D000F0D7FC0546206800BF36
:10087000016811F0010F1DD1816811F0010F01BF56
:100880008168314041F00101816000F0C5FC411BED
:1008900020680329ECD3016811F0010FE8D1A06DA5
:1008A00040F01000A065E06D40F00100E06501201F
:1008B00002B070BD002002B070BD0000B0B586B0BF
:1008C00003F096FA00F030F802F088FF4C20002484
:1008D000CDE90344C5F60000016841F00201016062
:1008E0006946006800F00200059005980820009015
:1008F0000320CDE9010440F20040C4F6000000F0FE
:10090000A9FB40F270050120C2F20005287000F03A
:1009100083FC40F28001A0F57A706C70C2F2000195
:10092000486006B0B0BD000010B586B04C21002074
:1009300040F600040490C5F60001C4F600040A68FD
:1009400042F004020A60096801F00401059105996A
:100950004FF4005100910121CDE901100390694647
:10096000204600F077FB20464FF40051002200F0B3
:100970004BFC06B010BD0000FEE700007047000011
:10098000EFF3108072B600BFFEE70000F0B581B053
:100990000022009290F85420012A01D10221E9E0BE
:1009A000012280F8542003689A6812F0040F21D1C4
:1009B00002694C684FF6FF7E42F2087CC0F2030EDB
:1009C000C4F2010C42F00402022C19D10424C8F232
:1009D0000004A2426AD109689F6A41F07C4242F059
:1009E0007F7282EA0E023A409A62B1F1FF3F00F351
:1009F000BD805FE0816D41F0200181650121B6E09D
:100A00000425C8F20005AA426BD10A681C4654F8B6
:100A1000285F0EEA020E4EEA050EC4F800E089686F
:100A20004FF60077B2F1FF3FC0F2FF3701EA022133
:100A300001EA07015F6927EA022741EA07015961D4
:100A400000F39480DCF8004041F20001CBF2000199
:100A50008A4204F0E07308BF14F4000169D1DCF8A5
:100A6000001042F66352C0F23E5221F0E071194389
:100A700041F40001CCF8001040F20C01C2F2000178
:100A800009688909A1FB021291090C2201EB4101BD
:100A900002EB810100910099002967D0009901398A
:100AA00000910021009A002AF8D160E00968B1F1B4
:100AB000FF3F5BDCDCF8002044F20003CBF60003D0
:100AC000994247D042F20003CBF20043994244D00E
:100AD00041F20003CBF20003994247D102F0A0712A
:100AE0003DE00A6812EA0E0FC2F3846592FAA2F69C
:100AF00004F01F0E4FEA940418BFB6FA86F5076E8D
:100B000005FA0EF60F2505FA0EF5AF433E430666CD
:100B1000C669B442BFF483AF1C46960EED4354F849
:100B2000287F06F00F063D4006FA0EF747EA050E4D
:100B300073E744F20001CBF600018A4208BF14F0CB
:100B400080711AD1DCF8001021F0E071194341F0F6
:100B5000807109E002F4400101E002F0C071DCF8AC
:100B6000002022F0E0721143CCF800100021002296
:100B700080F85420C8B201B0F0BD42F20007002155
:100B8000CBF20047BA4208BF14F48002EFD1DCF880
:100B9000001021F0E071194341F48001E4E7000006
:100BA0000068006C70470000F0B581B0044600207A
:100BB000002C009002BF012001B0F0BD254655F881
:100BC000580F30B9204600F009F90020E06584F89C
:100BD00054002168886810F0805F1FD188684FF644
:100BE000E872C6F6FF72104042F6635240F0805041
:100BF000C0F23E52886040F20C00C2F20000006871
:100C00008009A0FB02029009022202EB400001E0F1
:100C100000980138009000980028F9D1886810F0F9
:100C2000805F09D1A06D40F01000A065E06D40F03C
:100C30000100E065012000E000208A68C2F3800224
:100C40002B6803F010031A432A6803D042F0100106
:100C50000120C0E022F4817242F002022A608A6818
:100C600012F0010F2ED1D4E9022ED4F810C04FF4A7
:100C70000013BCF1000FB8BF2CF00043267EA77E06
:100C800042EA8632667E42EAC636226B46EA47363A
:100C900046EA0E06002A18BF46F4805646EA0302CA
:100CA00094F82C3042EA430394F82020012A0ED114
:100CB0005FB1A26D42F02002A265E26D42F0010236
:100CC000E26504E0D4F810C040E043F48033626A87
:100CD00040F20127CFF6FE77002A1FBF02F4E07230
:100CE0001A43A36A1343CA683A401A43CA60636846
:100CF000E26C03F040473A4394F83C70012F09D16D
:100D0000D4E91076D4F848E03A43324342EA0E027E
:100D100042F001020F694FF60246B3F1004FC1F6EF
:100D2000FF7607EA060742EA07020A610ED0B3F12E
:100D3000404F18BFB3F1804F08D09A0C42F20873AD
:100D4000C4F201031F6862F395471F60636B4A6931
:100D5000BCF5001F22F0070242EA03024A61A26BBF
:100D60004F6927F0700747EA02124A6108D0BCF1C8
:100D7000000F18D10A4652F8287F67F00F0C10E0D8
:100D80000A461C2652F8287FD4F860C0E76906EBB3
:100D900087076FF00F0607F01C0706FA07F74CEA03
:100DA000070CC2F800C0496901F00701994206D159
:100DB00000210122E165A16D62F301010BE0A06D4C
:100DC00020F0120040F01000A06554F85C0F40F0D5
:100DD000010101202546296001B0F0BD80B586B033
:100DE000002142F200420491CDE90211CDE9001147
:100DF000C4F201020068904201D006B080BD4C20D0
:100E0000C5F60000426942F400724261426902F490
:100E100000720592059A026842F0020202600068C0
:100E200000F0020005900598102000900320CDE905
:100E3000010140F200406946C4F6000000F00AF9E2
:100E400006B080BDF0B581B004460D466069082843
:100E500001D1082705E02068C06810F0010F44D1D7
:100E6000042700F0D9F906462068016839421ED0EF
:100E7000A16D41F40071A165C16811F4406F4BD1BF
:100E8000A17E002948D1016811F0080F44D0816883
:100E900011F0040F38D1416840F2011221F00C0129
:100EA0004160A16D914341F00101A16534E0691CED
:100EB0000AD06DB900F0B0F92068016839421AD043
:100EC00001683942F6D0D3E701683942FCD0CFE758
:100ED00000F0A2F9811B2068A94202D901683942B9
:100EE00009D001683942F3D0C2E7A06D40F020007C
:100EF000A065012016E0A06D40F00400A065002070
:100F000084F8540003200DE0A16D41F02001A1659B
:100F1000E16D41F00101E165217E002904BF0C2152
:100F200001600020C0B201B0F0BD000010B5044661
:100F30002068806810F0040F03D194F85400012851
:100F400001D1022010BD012084F854002046FFF793
:100F500045FC00281EBF002184F8541010BDA06D70
:100F600040F601711C224FF6E873C7F6FF73884301
:100F700040F48070A0650020E06521680A6084F874
:100F800054008A681A4042F004028A6010BD0000D2
:100F9000B0B5044694F85400012804BF0220B0BD47
:100FA000012084F854002068816811F0040F28D0D3
:100FB000816811F0020F08D181684FF6E872C7F618
:100FC000FF72114041F01001816000F025F90546E3
:100FD000206800BF806810F0040F12D000F01CF9E8
:100FE000411B20680229F5D9816811F0040FF1D066
:100FF000A06D214640F01000A065012051F85C2F43
:101000000BE02046FFF79EFB50B9214640F201124B
:1010100051F8580F20EA0202002042F001020A6053
:10102000002184F85410B0BD70B505466E1C00F068
:10103000F3F8044636B140F20000C2F20000007836
:10104000054401E04FF0FF3500F0E6F8001BA84230
:10105000FAD370BD2DE9F04F81B00E68002E00F07C
:10106000CA8040F6000240F6040B00244FF0030E45
:101070004FF00108C5F60002C5F6000B02F1704200
:1010800090424FF0070208BF02220092002200BFE8
:10109000A8F1010A012303FA0AF316EA030900F092
:1010A000A180D1F804C00CF00306751E012D13D8E1
:1010B00087680EFA02F527EA0505CF6897403D4399
:1010C0008560CCF30015476805FA0AF527EA0303A3
:1010D0002B43436002E000BF032E21D0C5680EFA07
:1010E00002F3022E25EA03038D6805FA02F543EAAE
:1010F0000503C36014D14FF6FC7604F01C030F27E0
:10110000C7F6FF769F4006EA5A060644356A25EA86
:1011100007070D6905FA03F33B433362D1F804C0B6
:1011200005680EFA02F31CF4403F25EA03030CF0B5
:10113000030505FA02F543EA0503036052D00825CA
:101140004FEA9A0604F00C030727B0F1904FC4F25F
:10115000010507FA03F755F8265025EA070508D0D8
:1011600040F20047C4F60007B842009F08BF0127BD
:1011700000E0002707FA03F308272B43C4F2010716
:1011800047F8263040F60003C5F600031E463368D4
:101190004F6823EA090317F4801F18BF43EA0903C5
:1011A00017F4001F3360DBF8003023EA090318BF8F
:1011B00043EA090317F4803FCBF80030DBF87C30BA
:1011C00023EA090318BF43EA090317F4003FCBF8E9
:1011D0007C30DBF8803023EA090318BF43EA0903B7
:1011E000CBF880300E680434023236FA08F308F186
:1011F00001087FF44DAF01B0BDE8F08F00690840F1
:1012000018BF01207047000000F12803002A18BF12
:1012100000F118031960704740F20000C2F20000AC
:101220008068704790F84120202A03D190F8402030
:10123000012A02D10221C8B27047242280F841203D
:101240000268136823F001031360136823F48053CA
:101250001360136819431160116841F001011160B6
:10126000202180F84110002180F84010C8B270475A
:1012700090F84120202A03D190F84020012A02D181
:101280000221C8B27047242280F841200268136806
:1012900023F001031360136823F4706343EA012110
:1012A0001160116841F001011160202180F84110A6
:1012B000002180F84010C8B27047000010B5044605
:1012C000002C04BF012010BD94F8410028B9002073
:1012D00084F84000204600F071F924204FF40443C4
:1012E00084F841002068016821F001010160616813
:1012F00021F070610161816821F400418160D4E9CD
:101300000212012A08BF4FF40043022A41EA0301F6
:1013100004F11003816004BF4FF400614160416833
:1013200041F0007141F400414160C16821F4004185
:10133000C1600ECB114341EA0321C160D4E9071219
:1013400011430160016841F001010160002020218A
:10135000606484F84110206384F8420010BD0000EE
:101360002DE9F04704461E461746884694F841008A
:10137000202803D194F84000012803D10220C0B2F4
:10138000BDE8F087012084F84000FFF745FF0546DF
:101390002068816911F4004F05D0FFF73DFF401B25
:1013A0001928F5D9E6E0212249F60049002184F800
:1013B00041201022CFF60049C0F2FF1184F84220EC
:1013C00000226264676266856263628DB2F5807F27
:1013D0000ED3FF22A9F580632285024652F8047FCE
:1013E0003B4047466FF39F273B4301F5005710E012
:1013F000628D4346A9F580676FF39F232285D2B2A1
:1014000043EA0243024652F8046F37403B4301F57A
:1014100090373B43089E1360628D002A00F08A805B
:101420006FF39F28701C48EA010A48F000774FF0DC
:10143000FF0847D0204631462A4602F0E5F800284A
:1014400040F0A480616A206811F8012B8262616219
:10145000618D01396185218D01392185628D6AB3E4
:1014600009042BD1816911F0800F0DD1002E00F0FD
:101470007F8000BFFFF7D0FE401BB0427AD82068C3
:10148000816911F0800FF5D0618DB1F5807F09D3AE
:10149000A4F82880014651F8042F02EA090242EA22
:1014A0000A020AE0618D2185C9B247EA014201467C
:1014B00051F8043F03EA09031A430A60618D0029C9
:1014C000B8D137E020464FF0FF312A4602F09CF8B1
:1014D00000285BD1616A206811F8012B8262616289
:1014E000618D01396185218D01392185628DF2B1CE
:1014F00009041CD1816911F0800FFBD0618DFF2997
:1015000009D9A4F82880014651F8042F02EA0902FB
:1015100042EA0A020AE0618D2185C9B247EA014226
:10152000014651F8043F03EA09031A430A60618D3A
:101530000029C7D18169002E01F0200111D049BBDB
:10154000204631462A4601F0C9FFF8B9FFF764FE8C
:10155000401BB0420ED82068816911F0200FEFD0F7
:1015600018E0B9B9204600212A4601F0B7FF68B952
:10157000FFF752FE606C40F020006064202084F889
:101580004100002084F8420084F840000120C0B2ED
:10159000BDE8F08720214EF60003C161CFF600635D
:1015A00042681A404260002084F8411084F84200EA
:1015B00084F84000C0B2BDE8F087000010B594B0D8
:1015C0000446002038211290CDE91000CDE90E002C
:1015D0006846FEF7C6FF206845F20041C4F20001EC
:1015E000884201D014B010BD402000904FF440302C
:1015F0000590684600F0DAF8002818BFFFF7C0F938
:101600004C240EA9C5F60004206840F002002060BA
:10161000206800F0020013901398C0200E90122052
:101620000F900020CDE910000420129040F20040FD
:10163000C4F60000FFF70EFDE06840F40010E06023
:10164000E06800F400101390139814B010BD00006F
:1016500040F20000C2F2000001788268114481600B
:101660007047000080B5032000F07EF800F0B0FA6B
:1016700040F20C01C2F200010860002000F008F8FE
:1016800000281CBF012080BD00F028F8002080BD8C
:1016900070B540F200060446C2F200063078002819
:1016A00002BF0125284670BD00F092FA31784FF450
:1016B0007A72B2FBF1F1B0FBF1F001F031FB0125E0
:1016C0000F2C08D838B94FF0FF30214600220025F2
:1016D00000F018F87460284670BD0000052000F086
:1016E00043B800000028B8BF704700F01F01012276
:1016F000400902FA01F14EF20012CEF2000242F865
:101700002010704710B500F00F034EF60C5E00F18C
:10171000604CB0F1FF3FA3F10403CEF2000E73441E
:1017200003F10C04C8BF0CF56444DEF80000C0F3FC
:10173000022000F1040CC31E80F00700BCF1070F6B
:101740004FF0010C38BF0023042828BF04200CFAF6
:1017500000F0013808400CFA03F10F3198401140B5
:1017600008430001207010BD4EF60C514FF6FF03E8
:10177000CEF200010A681A4060F30A2242F080604B
:1017800040F0FD700860704740F20040C5F6000070
:10179000006800F4C060704740F20040C5F60000E9
:1017A000016841F48071016070470000F0B581B0BC
:1017B00004468826A078C5F60006C0073DD0FFF78E
:1017C000EBFFFFF729FD0546D6F8780310F4807F7C
:1017D00006D1FFF721FD401B0228F5D903202DE09B
:1017E000B168606B01F44071814221D0B168B26888
:1017F00042F4803211F0020FB260B26822F48032FB
:10180000B26021F440720146B26011D0FFF704FDCE
:10181000054641F2883700BFB06810F0020F06D1CC
:10182000FFF7FAFC401BB842F6D9032006E0616BD3
:10183000B06820F440700843B0600020216811F0C7
:10184000010F06D06268336823EA124392B21A434A
:1018500032608A0706D5A268336823EA124392B23F
:101860001A4332608A0605D52269336823F440633F
:101870001A4332608A0540F20002CFF6FF7222D48A
:101880004B052CD40B0536D44A0640D40A064FD457
:10189000CA055ED4CA066DD40A047ED449040FD5A5
:1018A000E16A326822F04052B1F1005F42EA01027F
:1018B000326002BF56F87C1C41F4803146F87C1C33
:1018C000C0B201B0F0BD236A35684FF6FF771F4301
:1018D00057402F4047EA034333604B05D2D5636A34
:1018E00035684FF6FF771F4357402F4047EA0343C1
:1018F00033600B05C8D5A36A4FF6FF771F437A40C4
:1019000037683A4042EA034232604A06BED562690D
:101910004FF47F236FF47F2703EA021347EA121282
:10192000376882F47F223A401A4332600A06AFD504
:10193000A2694FF47F236FF47F2703EA021347EA7B
:101940001212376882F47F223A401A433260CA0585
:10195000A0D5E2694FF47F236FF47F2703EA0213D7
:1019600047EA1212376882F47F223A401A43326003
:10197000CA0691D5E268336823F44073B2F5807FDC
:1019800043EA0203336002BF56F87C2C42F08072B7
:1019900046F87C2C0A047FF581AF226B336823F074
:1019A0004043002A43EA0203336002BF56F87C2C0E
:1019B00042F0807246F87C2C49047FF581AF6FE7D6
:1019C0002DE9F04381B005460C46E5B344F200082A
:1019D000C5F60008D8F8000000F00700A04216D2B3
:1019E000D8F8000020F007002043C8F80000FFF7F7
:1019F00013FC0646D8F8000000F00700A04206D00D
:101A0000FFF70AFC801B0228F4D903201CE0286899
:101A10000827C5F6000710F0020F1AD0A868396829
:101A200021F0F00108433860FFF7F6FB064600BFDF
:101A3000386810F4803F0BD1FFF7EEFB801B0228C3
:101A4000F6D9032000E00120C0B201B0BDE8F08368
:101A50002868410619D56869D7F8001121F00F01EF
:101A600041EA1010C7F80001FFF7D6FB064600BF99
:101A7000D7F8000110F4803F06D1FFF7CDFB801BA3
:101A80000228F5D90320DFE72868410714D5E86864
:101A9000396821F4E06108433860FFF7BDFB064672
:101AA000386810F4003F06D1FFF7B6FB801B022810
:101AB000F6D90320C8E72868010715D528693968D1
:101AC00021F4605141EAC0003860FFF7A5FB0646EB
:101AD000386810F4802F06D1FFF79EFB801B022888
:101AE000F6D90320B0E72868C00737D068684FF000
:101AF000B04148B103280DD0022811D1096811F472
:101B0000003F13D101209FE7096811F0020F0DD1AA
:101B1000012099E7096811F0007F07D1012093E7C0
:101B2000096811F4806F01D101208DE7396821F037
:101B3000030108433860FFF76FFB064641F288391E
:101B40003868696800F00C00B0EB810F06D0FFF731
:101B500063FB811B03204945F2D975E7D8F80000E3
:101B600000F00700A04216D9D8F8000020F00700C6
:101B70002043C8F80000FFF74FFB0546D8F80000E7
:101B800000F00700A04206D0FFF746FB411B0320F0
:101B90000229F3D958E700F065F839683C2202EAD7
:101BA000910144F2E062C0F600025158B0FBF1F03E
:101BB00040F20C01C2F20001086040F20400C2F2DF
:101BC0000000006801B0BDE8F043FFF761BD000010
:101BD00080B500F047F808213C22C5F600010968ED
:101BE00002EA910144F2E062C0F600025158B0FBF3
:101BF000F1F080BD80B500F035F8082144F2207383
:101C0000C5F60001C0F600030A680968C1F30221A5
:101C100053F821103C2303EA920244F2E063C0F639
:101C200000039A58B0FBF2F0C84080BD80B500F0C8
:101C300019F8082144F22073C5F60001C0F600032C
:101C40000A680968C1F3C22153F821103C2303EA52
:101C5000920244F2E063C0F600039A58B0FBF2F03F
:101C6000C84080BD80B50C2142F2004E44F6000C05
:101C7000C5F60001C0F2F40EC0F2E81C51F8040CE5
:101C80000A6810F00C0005D00C2804BF02F0030213
:101C9000012A16D14FF0B0421368126802F0080210
:101CA00013F0080F06D1DAB14FF0B04200231268EA
:101CB00008221FE0D2B14FF0B042126802F0F003E8
:101CC00017E000F00F00042849D008284AD14FF04F
:101CD000B040006810F4801F604618BF704642E0B4
:101CE000D1F8882002F47063082203E0D1F888203C
:101CF0000023042223FA02F244F240730028C0F6C3
:101D0000000353F82230184618BF002051F8042C65
:101D100002F00C020C2A18BF80BD086800F0030016
:101D200002280AD0032807D14FF0B040006810F411
:101D3000801F08BFE64600E09E4608680A680968FA
:101D40000123C0F30620C2F3021203EB517100FB22
:101D50000EF00132B0FBF2F0B0FBF1F080BD0023D9
:101D60007046D3E700200023D0E700002DE9F04FB4
:101D700081B00446002C00F0FB8140F2900AC5F6C9
:101D8000000A5AF8880C00F00C085AF8840C00F08D
:101D900003092078800659D42078C0070DD0B8F107
:101DA000080F06D0B8F10C0F08BFB9F1030F40F0CF
:101DB00025826068002800F0DB812078800716D536
:101DC0002069B8F1040F06D0B8F10C0F08BFB9F1C3
:101DD000020F40F03182002800F0CA8160695AF891
:101DE0008C1C21F0FE4141EA00604AF88C0C2078FE
:101DF000000700F181802078400700F1A780E76AA2
:101E0000002F00F00B83B8F10C0F40F0D381012FAD
:101E100000F0AE815AF8840C216B00F003028A4274
:101E200040F0A681616B00F070028A4240F0A08110
:101E3000A16B00F4FE42B2EB012F40F09981616C7E
:101E400000F06040884240F09381E7E2206AB8F1F8
:101E5000000F06D0B8F10C0F08BFB9F1010F40F028
:101E6000CB80002800F084814FF0B041A06A44F29A
:101E700000064EF6BF2B4CF6BF750A68C5F6000685
:101E8000C0F2211BC0F26A0512F0080F06BFDAF893
:101E900004100909096801F0F00188426CD93C215D
:101EA00044F2E06201EA900044F24071C0F60002A0
:101EB000C0F600010858DAF8781001F00F0152F866
:101EC0002110B0FBF1F7FFF75FFCB0F5007F40F0A9
:101ED000E6805F4540F2078149F23F30C0F234208E
:101EE000874240F249824AF63F60C0F2EB208742C7
:101EF00040F2C5820027FBE0A069DAF80410002850
:101F000000F0B980E06901F01002904200F0C18257
:101F100001F00302022A00F02B81C90700F0B2820F
:101F2000DAF8040020F00100CAF80400FFF774F9A1
:101F30000546DAF8040010F0020F00F0A282FFF765
:101F40006BF9411B03201129F3D9B7E2DAF87003CA
:101F500010F4807F68D1FFF71FFCFFF75DF905469D
:101F6000DAF8700310F4807F5ED1FFF755F9411B5A
:101F700003200229F4D9A1E24FF0B0410A6842F0EF
:101F800008020A600A6822F0F00202430A60616AED
:101F90005AF88C2C22F47F4242EA012144F2E0629A
:101FA0004AF88C1C3C21C0F6000201EA900044F281
:101FB0004071C0F600010858DAF8781001F00F01FE
:101FC00052F82110B0FBF1F7FFF7DEFBB0F5007F10
:101FD00077D15F4540F2B58049F23F30C0F23420FE
:101FE000874240F2CB814AF63F60C0F2EB20874245
:101FF00040F267820027A8E04FF0B0460028316821
:1020000000F0328141F001003060FFF705F905462C
:10201000306810F0020F40F05881FFF7FDF8411BC7
:1020200003200229F4D949E2E068002800F0638126
:10203000852818BF052805D1DAF8000040F0040013
:10204000CAF80000FFF7E8F80546DAF8000041F2A8
:10205000883640F00100CAF8000000BFDAF800003E
:1020600010F0020F40F01281FFF7D6F8411B032059
:10207000B142F3D922E221F00100CAF80400FFF7CF
:10208000CBF80546DAF8040010F0020F3FF4B3AEC7
:10209000FFF7C2F8411B03201129F3D90EE2AF422A
:1020A00021D945F63F50C0F2C600874240F2688110
:1020B00046F23F60C0F20310874240F204820027DC
:1020C00016E0AF423DD945F63F50C0F2C600874208
:1020D00040F2588146F23F60C0F20310874240F25E
:1020E000F481002731E000200FF2E43151F8207034
:1020F000306820F0070038433060FFF78DF8054660
:10210000306800F00700B84205D0FFF785F8401BA3
:102110000228F5D92CE04FF0B040016841F00801E9
:1021200001600168A26A21F0F00111430160606A58
:102130005AF88C1C21F47F4141EA00204AF88C0CAB
:102140001AE00020E2A151F82070306820F007006A
:1021500038433060FFF760F8054600BF306800F094
:102160000700B84208D0FFF757F8401B0228F5D9FE
:10217000012001B0BDE8F08FFFF774FD5AF8881C0C
:102180003C2202EA910144F2E062C0F6000251589A
:10219000B0FBF1F040F20C01C2F20001086040F225
:1021A0000400C2F200000068FFF772FA002840F055
:1021B0008581F1E54FF0B046306820F080703060E6
:1021C000FFF72AF80546022F0CD100BF306810F047
:1021D000007F00F0EB80FFF71FF8411B03200A2966
:1021E000F4D96BE1306810F0007F00F00E81FFF74A
:1021F00013F8411B03200A29F4D95FE14FF0B040E6
:102200000168A26821F48011114301606768B7F585
:10221000803F09D0B7F5041F40F086804FF0B041F1
:102220000A6842F400120A60016841F480310160DA
:10223000FEF7F2FF054685E04FF0B0460028316812
:1022400000F0A28041F480703060FEF7E5FF0546A3
:10225000306810F4806F7FF4C1ADFEF7DDFF411BE5
:1022600003200229F4D929E121F001003060FEF7B2
:10227000D3FF0546306810F0020F3FF48DADFEF736
:10228000CBFF411B03200229F4D917E1E06840F09D
:102290000400852840F0C680FEF7BEFF0546DAF848
:1022A000000041F2883640F08000CAF8000000BF0C
:1022B000DAF8000010F4006F7FF4A1ADFEF7ACFF78
:1022C000411B0320B142F3D9F8E04FF0B040016860
:1022D00041F0080101600168A26A21F0F001114398
:1022E0000160606A5AF88C1C21F47F4141EA0020A9
:1022F0004AF88C0C50E5FEF78FFF0646DAF800002E
:1023000041F2883920F08000CAF80000DAF8007045
:10231000FEF782FF054617F4006F00F09B80A91BB3
:1023200003204945F2D9C9E04FF0B046306820F4A7
:1023300080303060306820F400103060FEF76CFFB1
:1023400005466FB14FF0B046306810F4003F7FF49F
:1023500034ADFEF761FF411B03206429F4D9ADE0E1
:10236000306810F4003F3FF428ADFEF755FF411BE5
:1023700003206429F4D9A1E00120B5E60120E1E6BB
:102380000120B1E60120DDE621F480703060FEF727
:1023900043FF0546306810F4806F3FF428ADFEF728
:1023A0003BFF411B03200229F4D987E05AF8840C33
:1023B00048F28C0104F13007C1F2C11108408ECF00
:1023C000D4E910650843104340EA03203843304302
:1023D00028434FF0B0454AF8840C286840F08070DC
:1023E00028605AF8840C40F080504AF8840CFEF7BC
:1023F00013FF0446286810F0007F0FD1FEF70CFF92
:10240000011B03200A29F5D958E05AF8840C4FF62D
:10241000FC71CEF6FE6108404AF8840C002001B041
:10242000BDE8F08FFEF7F8FE0546DAF8000041F24D
:10243000883620F08000CAF80000DAF8000010F4B6
:10244000006F3FF4DCACFEF7E7FE411B0320B14216
:10245000F3D933E0DAF8000041F2883620F00100C9
:10246000CAF80000DAF8000010F0020F3FF4C7AC21
:10247000FEF7D2FE411B0320B142F3D91EE0022039
:1024800032E6E069DAF8041021F010010843CAF8D6
:102490000400DAF8040040F00100CAF80400FEF776
:1024A000BBFE0546DAF8040010F0020F7FF4A3AC7F
:1024B000FEF7B2FE411B03201129F3D901B0BDE89C
:1024C000F08F02203EE602200EE602203AE600BF30
:1024D0000000000001000000020000007047000042
:1024E000704700002DE9F04182B08779012F04D1B7
:1024F0004779012F03D102210BE1022109E10127D4
:1025000040F2904C4771C5F6000C0779012F1BD1A2
:1025100040F20C07C2F200073F6807EB4707C7F31A
:102520004F370097DCF8007027F40047CCF80070B4
:10253000009F013F0097009F002FF9D1DCF8007049
:1025400047F40047CCF8007040F20C0E6425C2F24C
:10255000000EDEF8004004EB4404C4F34B4414FBCB
:1025600005F401945CF87C4C019D65B1019DA408C3
:10257000013D01955CF87C5C04EA550404F001041B
:10258000012CEFD001E002248460DCF800406425D7
:1025900024F40044CCF80040DEF80040C4EBC4044E
:1025A000C4F34C4414FB05F401940824C5F601045B
:1025B000019D3DB1019D013D0195256815F0020F7A
:1025C000F6D001E00125856021716425DEF8001058
:1025D000C1EBC101C1F34C4111FB05F1019100BFF9
:1025E000019D3DB1019D013D0195256815F0010F4B
:1025F000F6D001E00125856065680191019939B146
:10260000019901390191216811F0020FF6D001E022
:1026100001218160002164252171DEF80070C7EB83
:10262000C701C1F34C4111FB05F10191019939B189
:10263000019901390191216811F0010FF6D001E0F3
:10264000012181606168C3B30021642501264FF038
:10265000FF0809E086606768013117708FB29F42FA
:102660002BD2DEF800700132C7EBC707C7F34C4727
:1026700017FB05F7019700BF019F3FB1019F013F85
:102680000197276817F0020FF6D000E0866084F803
:102690000480DEF80070C7EBC707C7F34C4717FB91
:1026A00005F70197019F002FD4D0019F013F0197AB
:1026B000276817F0010FF5D0CDE7DCF80010642291
:1026C00041F40041CCF80010DEF8001001EB4101AC
:1026D000C1F34B4111FB02F1019100BF5CF87C1C7E
:1026E000019A62B1019A8908013A01925CF87C2C46
:1026F00001EA520101F001010129EFD001E00221BC
:10270000816081680122827100224271002918BF14
:102710000121C8B202B0BDE8F08100002DE9F0430C
:1027200082B08779012F04D14779012F03D102218B
:10273000E9E00221E7E0012740F2904C4771C5F63D
:10274000000C0779012F1BD140F20C07C2F20007E1
:102750003F6807EB4707C7F34F370097DCF8007077
:1027600027F40047CCF80070009F013F0097009FBE
:10277000002FF9D1DCF8007047F40047CCF8007066
:1027800040F20C0E6425C2F2000EDEF8004004EBAD
:102790004404C4F34B4414FB05F401945CF87C4CF2
:1027A000019D65B1019DA408013D01955CF87C5C2B
:1027B00004EA550404F00104012CEFD001E00224E6
:1027C000846041F010046425942C14BF002401247B
:1027D0000471DCF8004024F40044CCF80040DEF83A
:1027E0000040C4EBC404C4F34C4414FB05F401944E
:1027F0000824C5F6010400BF019D3DB1019D013DC6
:102800000195256815F0020FF6D001E001258560DD
:1028100021716427DEF80050C5EBC506C6F34C46AF
:1028200016FB07F6019600BF019E3EB1019E013ED8
:102830000196266816F0010FF6D001E001268660A9
:1028400066689BB300264FF064094FF0010800BF93
:10285000975DC5EBC505C5F34C4515FB09F501951D
:10286000019D3DB1019D013D0195256815F0020FC7
:10287000F6D001E0C0F808802771DEF80050C5EB03
:10288000C507C7F34C4717FB09F70197019F3FB1F5
:10289000019F013F0197276817F0010FF6D001E073
:1028A000C0F80880676801369E42D1D1DCF800206C
:1028B000842942F40042CCF800201CD0DEF800103D
:1028C000642201EB4101C1F34B4111FB02F1019183
:1028D0005CF87C1C019A62B1019A8908013A019264
:1028E0005CF87C2C01EA520101F001010129EFD0D2
:1028F00001E002218160816801228271002242711F
:10290000002918BF0121C8B202B0BDE8F083000061
:102910007047000070470000F0B581B00446002009
:102920000DF1020512210223ADF8020020462A46CD
:10293000FFF7D8FD9DF802609DF803702046022144
:102940002A460223FFF7EAFE17F0010F1CBF2046BC
:1029500000F0D0F8B80744BF204600F0C5F878076B
:1029600044BF204600F0BEF8380744BF204600F0C0
:10297000BFF8F80644BF2046FFF7CCFFB80644BFB7
:102980002046FFF7C5FF780644BF2046FFF7A8FDA5
:102990003502380606D5E805204654BF002101213E
:1029A000FFF79CFDA80544BF204600F09FF868048F
:1029B00044BF204600F07AF801B0F0BD70B582B097
:1029C0000446002C02BF012002B070BDA67940F27F
:1029D0000845C5F60005032E18BF002E39D100208A
:1029E0006071204600F064F840F69000002EC5F6B5
:1029F0000000016841F4805101602AD10220642264
:102A0000A0714FF68C40CFF6FF70295821F4004199
:102A1000295040F20C01C2F200010968C1EBC1016A
:102A2000C1F34C4111FB02F1019100BF019969B35F
:102A3000019901390191295811F4804FF6D1D5F847
:102A4000880040F40040C5F88800286840F4006021
:102A5000286000214FF400602861C5F6010120685C
:102A60000A6822F0400240F441700A6008604FF4A6
:102A7000B8504860086840F04000086001202071AC
:102A80000020A0600121A17102B070BD0120A060F2
:102A9000D5F8881041F40041C5F88810296841F440
:102AA000006129604FF400612961EBE77047000085
:102AB00080B582B064200122C5F60000016841F0B3
:102AC000010101600121006800F0010001900198FE
:102AD0003220FEF717FE322002B0BDE88040FEF73C
:102AE00001BE000070470000704700007047000002
:102AF00070470000704700002DE9F04182B08779EF
:102B0000012F04D14779012F03D1022103E10221D2
:102B100001E1012740F2904C4771C5F6000C07799E
:102B2000012F1BD140F20C07C2F200073F6807EBF0
:102B30004707C7F34F370097DCF8007027F40047CA
:102B4000CCF80070009F013F0097009F002FF9D143
:102B5000DCF8007047F40047CCF8007040F20C0E2F
:102B60006425C2F2000EDEF8004004EB4404C4F316
:102B70004B4414FB05F401945CF87C4C019D65B159
:102B8000019DA408013D01955CF87C5C04EA5504B4
:102B900004F00104012CEFD001E002248460DCF891
:102BA0000040642524F40044CCF80040DEF80040E6
:102BB000C4EBC404C4F34C4414FB05F4019408248E
:102BC000C5F60104019D3DB1019D013D01952568BA
:102BD00015F0020FF6D001E0012585600E25642670
:102BE0002571DEF80050C5EBC505C5F34C4515FB56
:102BF00006F50195019E3EB1019E013E01962668B3
:102C000016F0010FF6D001E0012686606668019596
:102C1000019D3DB1019D013D0195256815F0020F13
:102C2000F6D001E00125856021716426DEF80010F0
:102C3000C1EBC105C5F34C4515FB06F5019500BF79
:102C4000019D3DB1019D013D0195256815F0010FE4
:102C5000F6D001E00125856065688BB30025642608
:102C60004FF00108575DC1EBC101C1F34C4111FBAD
:102C700006F10191019939B1019901390191216858
:102C800011F0020FF6D001E0C0F808802771DEF8DD
:102C90000010C1EBC107C7F34C4717FB06F70197BC
:102CA000019F3FB1019F013F0197276817F0010F76
:102CB000F6D001E0C0F80880676801359D42D1D1A7
:102CC000DCF80010642241F40041CCF80010DEF87A
:102CD000001001EB4101C1F34B4111FB02F10191E5
:102CE0005CF87C1C019A62B1019A8908013A019250
:102CF0005CF87C2C01EA520101F001010129EFD0BE
:102D000001E002218160816801228271002242710A
:102D1000002918BF0121C8B202B0BDE8F08100004F
:102D2000411E0020B0EB116F1CBF012070474EF216
:102D30001002F023CEF2000251604EF62351CEF283
:102D400000010B7007219060116070477047000010
:102D5000704700007047000090F83C300222012BC1
:102D60002BD010B5012342F6004E80F83C3080F89D
:102D70003D20C4F2010E026853687245D2F808C0C3
:102D800002BF23F470034C68234372450C6823F0A0
:102D9000700343EA04035360BDE8104018BFB2F16A
:102DA000804F04D189682CF0800319439160012180
:102DB000002280F83D1080F83C20D0B2704700001F
:102DC00010B50446002C04BF012010BD94F83D004E
:102DD00028B9002084F83C00204600F065F8022065
:102DE00042F6004184F83D00C4F201012068026807
:102DF000884218BFB0F1804F03D1A36822F070025F
:102E00001A4344F2FF33C4F20103984205DCB0F1E7
:102E1000804F0ED088420CD00FE044F60003C4F27D
:102E20000103984205D044F20043C4F201039842E2
:102E300003D1236922F440721A43A36922F080026D
:102E4000884242EA03020260E268C2626268826209
:102E50001EBF44F60001C4F20101884205D044F2CD
:102E60000041C4F20101884201D16169016301217D
:102E70004161002084F8481084F83E1084F83F1027
:102E800084F8401084F8411084F8421084F843100C
:102E900084F8441084F8451084F8461084F84710EC
:102EA00084F83D1010BD00000068B0F1804F18BFDD
:102EB000704780B582B058200022C5F60000016836
:102EC00041F0010101600121006800F00100019062
:102ED00001981B20FEF716FC1B2002B0BDE88040C5
:102EE000FEF700BC90F83C300222012B00F0C380BA
:102EF00010B501234FF6887C80F83C3080F83D20E7
:102F00008822CFF6CF7CD0F800E0CFF6CE72DEF884
:102F100008301A40CEF808200B684F2B26DC1F2BF8
:102F200040DD202B18BF302B40D0402B40F0A58037
:102F30004A68C968DEF82030DEF8204024F0010439
:102F4000CEF82040DEF8184024F0F00444EA0111E5
:102F5000CEF8181023F00A011143CEF82010DEF845
:102F6000081001EA0C0141F0470179E06F2B25DDE3
:102F7000B3F5005F45D0B3F5805F73D0702B7CD183
:102F8000D1E90123C9681A4342EA0121DEF8082089
:102F900022F47F421143CEF80810DEF8081041F009
:102FA00077015DE0002B18BF102B66D1DEF808100A
:102FB00001EA0C01194341F0070151E0502B32D0D6
:102FC000602B5AD14A68C968DEF8203023F010031C
:102FD000CEF82030DEF8183023F4704343EA013194
:102FE000DEF82030CEF8181023F0A00141EA0211DB
:102FF000CEF82010DEF8081001EA0C0141F067015C
:103000002EE0D1E90123C9681A4342EA0121DEF822
:10301000082022F47F421143CEF80810DEF8081091
:1030200041F480411CE04A68C968DEF82030DEF8CF
:10303000204024F00104CEF82040DEF8184024F0AF
:10304000F00444EA0111CEF8181023F00A011143EC
:10305000CEF82010DEF8081001EA0C0141F057010B
:10306000CEF808100022012180F83D10002180F8E0
:103070003C10BDE81040D0B270470122F3E70000D9
:103080007047000010B504462068016911F0020F76
:103090001CBFC16811F0020F15D06FF00201016171
:1030A00001212177806910F0030F03D02046FFF73C
:1030B000E7FF05E0204600F0ADF8204600F0ACF850
:1030C000002020772068016911F0040F1CBFC1683F
:1030D00011F0040F15D06FF0040101610221217776
:1030E000806910F4407F03D02046FFF7C9FF05E058
:1030F000204600F08FF8204600F08EF80020207760
:103100002068016911F0080F1CBFC16811F0080F99
:1031100015D06FF00801016104212177C06910F01A
:10312000030F03D02046FFF7ABFF05E0204600F079
:1031300071F8204600F070F80020207720680169BF
:1031400011F0100F1CBFC16811F0100F15D06FF0F7
:103150001001016108212177C06910F4407F03D07C
:103160002046FFF78DFF05E0204600F053F820468B
:1031700000F052F8002020772068016911F0010F5B
:103180001CBFC16811F0010F06D06FF00101016191
:10319000204600F043F82068016911F0800F1CBF41
:1031A000C16811F0800F06D06FF0800101612046E8
:1031B000FFF7CEFD2068016911F4807F1CBFC16854
:1031C00011F0800F06D06FF4807101612046FFF787
:1031D000BDFD2068016911F0400F1CBFC16811F0EE
:1031E000400F06D06FF040010161204600F018F852
:1031F0002068016911F0200F1CBFC16811F0200F79
:1032000000D110BD6FF0200101612046BDE81040E3
:10321000FFF7A0BD70470000704700007047000036
:103220007047000090F88410012902BF0221C8B243
:1032300070472421C0F8881002681368116821F0D3
:10324000010123F000531160002141661360202228
:10325000C0F8882080F88410C8B2704790F88420A5
:10326000012A02BF0221C8B27047B0B54FF0010E6B
:10327000242280F884E0C0F888200268D2F800C0D8
:10328000136823F001031360936823F0606319430C
:103290009160416EC9B1916844F2A07E44F2987584
:1032A000C0F6000EC0F60005C1F342611EF8013001
:1032B000695CC900B1FBF3F193685B0F1EF8034032
:1032C000EB5CDB00B3FBF4FE00E00121A0F86AE058
:1032D000A0F868102021C2F800C0C0F888100021B2
:1032E00080F88410BDE8B040C8B2704790F88420E0
:1032F000012A02BF0221C8B27047B0B54FF0010EDB
:10330000242280F884E0C0F888200268D2F800C047
:10331000136823F001031360936823F0604319439B
:103320009160416EC9B1916844F2A07E44F29875F3
:10333000C0F6000EC0F60005C1F342611EF8013070
:10334000695CC900B1FBF3F193685B0F1EF80340A1
:10335000EB5CDB00B3FBF4FE00E00121A0F86AE0C7
:10336000A0F868102021C2F800C0C0F88810002121
:1033700080F88410BDE8B040C8B27047B0B582B0E4
:103380000446BCB1D4F8880028B9002084F8840031
:10339000204600F05BF82420C4F88800206801680B
:1033A00021F001010160204600F080FF012803D1D7
:1033B000012048E0012046E0A06A00281CBF20460A
:1033C00000F0FEFE2068416821F490414160816870
:1033D00021F02A018160016841F0010101600020B3
:1033E000C4F89000FDF718FF05462068016811F049
:1033F000080F0DD06FF07E404FF4001100222B46D5
:103400000090204601F090F808B103201BE02068EE
:10341000006810F0040F0CD06FF07E404FF4800174
:1034200000222B460090204601F07EF808B10320D0
:1034300009E02020C4F88800C4F88C000020E06671
:10344000206784F88400C0B202B0B0BD10B594B05B
:103450000446002038211290CDE91000CDE90E007D
:103460006846FDF77EF8206844F20041C4F200018E
:10347000884201D014B010BD02244FF440200094C3
:1034800002906846FEF792F9002818BFFDF778FA17
:103490004C20C5F60000C16841F40031C160C1682C
:1034A00001F4003113911399016841F001010160A9
:1034B0000EA9006800F00100139013980C20CDE9CC
:1034C0000E040020CDE91000072012904FF090402C
:1034D000FDF7C0FD14B010BDFEE7000070B5044656
:1034E0000D4616462068816911F0100F02D10021A7
:1034F000002243E01021C161816911F0200F39D110
:10350000691C33D05DB100BFFDF786FE801BA84269
:1035100007D82068816911F0200FF5D02AE0FDF767
:103520007BFE2068426894F842308169202B0DD0E0
:1035300012F480420AD111F4004107D0416841F4ED
:1035400080414160FDF768FE064600BF2068816942
:1035500011F0200F05D1FDF75FFE801B1A28F5D36F
:103560004CE0816911F0200FCCD003E0816911F0AB
:10357000200FFBD020210122C1610421836913F4B3
:10358000807F1FBF4FF48072C26141F001010122B0
:103590005E0541BF4FF48062C26141F00801012223
:1035A0009B0504D4002A04BF002070BD04E04FF442
:1035B000007241F00201C26182694EF60003CFF64B
:1035C000006312F0020F1CBF00228262826912F0B7
:1035D000010F02BF826942F00102826142681A4013
:1035E0004260606C08436064202084F84100002041
:1035F00084F8420084F84000012070BD2068012258
:1036000081692421BAE7000070B5044615460E46CC
:103610002068806910F0020F1CBF002070BD46B307
:10362000701C08D017E000BF2068806910F0020FFE
:103630001CBF002070BD20464FF0FF312A46FFF727
:103640004DFF0028F0D012E02068806910F0020FD2
:103650001CBF002070BD204631462A46FFF73EFFC2
:1036600028B9FDF7D9FD401BB042EDD90CE001208F
:1036700070BD204600212A46FFF730FF00281CBFFE
:10368000012070BDFDF7C8FD606C40F02000606453
:10369000202084F84100002084F8420084F8400093
:1036A000012070BDF0B583B040F27004C2F2000496
:1036B000A0780A2856D300264FF090404FF480712E
:1036C000A670FDF79BFD40F200450028C4F60005FA
:1036D00008D028464FF48071FDF790FD002808BF00
:1036E000022600E00126A079704000EA0601B043FE
:1036F0002171607101F00300A671022809D0012830
:1037000030D1207802282FD001282FD050BB0120A3
:103710002DE0042000266946C0F60000009040F22B
:103720008800CDE90166C2F20000FDF72FF9A0B9CB
:1037300040F28800C2F20000FDF7F8FB68B940F2E1
:1037400088001421C2F20000FDF77CFB90B140F22A
:103750008800C2F20000FDF71BFC40F28000C2F2BC
:103760000000067003B0F0BD002000E002202070D1
:1037700003B0F0BD40F28806C2F200063046FDF705
:103780000FFA07463046FDF703FC40F280060120A1
:1037900004210022C2F200067780307040F2AA2095
:1037A00024F8070FC7F30720A0707840E77080F077
:1037B00002002071552060712846FDF725FD204646
:1037C000062100F097F8284604210122FDF71CFD90
:1037D000FDF722FD706003B0F0BD000070B582B04F
:1037E00040F2401400250DF102028421012301263C
:1037F000C2F200048DF802502046FEF78FFF05202C
:10380000FDF712FC0DF102022046802101238DF804
:103810000250FEF783FF0520FDF706FC0DF10202C2
:103820002046802101238DF80260FEF777FF0520F6
:10383000FDF7FAFB0DF1020220468A2101238DF8E3
:103840000260FEF76BFF41F21B000DF102058621BD
:103850000423CDF8020020462A46FEF75FFF012030
:1038600095212A460423C0F20110CDF8020020461B
:10387000FEF754FF40F20D406A468E210223ADF858
:1038800000002046FEF74AFF40F207408B212A46FF
:103890000423C0F20100CDF802002046FEF73EFFEF
:1038A0004FF008200DF102028C210623CDF8020012
:1038B0002046ADF80660FEF731FFFF204FF40051BF
:1038C00000228DF804004FF6FF70ADF8020040F6BC
:1038D0000000C4F60000FDF797FC0120FDF7A4FBF3
:1038E0000DF10202204682210323FEF717FF02B0EA
:1038F00070BD00002DE9F04184B040F2401406464E
:103900004FF400600D4600270DF106028C210623BE
:10391000ADF806000120C2F200048DF808708DF8A1
:1039200009508DF80A0020468DF80B70FEF7F6FE60
:103930002046002132462B46FFF7DEF840F600080D
:103940004FF4005101228DF80E70ADF80C70C4F6E2
:1039500000084046FDF758FC0120FDF765FB03AA6F
:10396000204683210323FEF7D9FE0DF10F064FF603
:10397000FF7500BF2046C02132460123FEF7B2FD8D
:10398000013F2F421CBF9DF80F00AC28F2D1FF2051
:103990004FF4005100228DF80E004FF6FF70ADF885
:1039A0000C004046FDF730FC0120FDF73DFB40F2E6
:1039B000401003AA82210323C2F20000FEF7AEFEEC
:1039C00004B0BDE8F081000070B584B0FDF724FCC0
:1039D00040F28006C2F200067168411AB1F57A7FA2
:1039E00025D370600420002401A9C0F600000190D6
:1039F00040F28800CDE90244C2F20000FCF7C6FFA5
:103A0000A0B940F28800C2F20000FDF78FFA68B951
:103A100040F288001421C2F20000FDF713FA40B111
:103A200040F28800C2F20000FDF7B2FA347004B030
:103A300070BD40F28804C2F200042046FDF7B0F8E1
:103A400005462046FDF7A4FA40F270040120758077
:103A5000042100223070C2F2000440F2AA2024F8AF
:103A6000070FC5F30720A0706840E57040F20045DD
:103A700080F00200C4F600052071552060712846D0
:103A8000FDF7C2FB20460621FFF734FF284604213C
:103A90000122FDF7B9FB04B070BD000010B584B081
:103AA00040F2880042F2004100244FF0804204239B
:103AB000C2F20000C4F201010394CDE9014480E8A0
:103AC00016000121C0E903444361047644768476FC
:103AD000C16180F82040C0E9094480F82C40C0E969
:103AE0000C43836380F83C40C464FDF75DF8002814
:103AF00018BFFCF745FF082001A9C0F60040CDE93A
:103B0000010440F288000394C2F20000FCF73EFF7B
:103B1000002818BFFCF734FF04B010BDF0B587B023
:103B20004C20002640F20044012241F224050127E6
:103B30000596C5F60000C4F60004016841F00201D4
:103B40000160016801F0020106910699016841F0E7
:103B50000101016041F22401006800F001000690BB
:103B600006982046FDF750FBCDE9015701AD2046F0
:103B7000CDE903662946FDF76DFA4FF480772046BC
:103B80002946CDE901760396FDF764FA4FF090409F
:103B90002946CDE901760396FDF75CFA07B0F0BD42
:103BA00080B540F2EC0045F200410122C2F2000073
:103BB000C4F20001016041F64B11C0F29001416076
:103BC00000218160C0E90711C0E90511C0E90321A6
:103BD000FDF774FB002818BFFCF7D2FE40F2EC00A2
:103BE0000021C2F20000FDF71DFB002818BFFCF702
:103BF000C7FE40F2EC000021C2F20000FDF738FBE6
:103C000000281CBFBDE88040FCF7BABE80BD0000A4
:103C100080B540F240100821C2F200000160FEF7BA
:103C2000CDFE00281CBFBDE88040FCF7A9BE80BDCA
:103C300080B588B040F24C1044F23F2C00214FF088
:103C400080422F23C2F20000C0F20F0C0791CDE991
:103C50000511CDE90311CDE90111C0E90023C0E947
:103C6000021C01618161FFF7ABF8002818BFFCF767
:103C700087FE4FF4805004A9049040F24C10C2F229
:103C80000000FFF72FF9002818BFFCF779FE00208D
:103C900001A90190039040F24C10C2F20000FFF71E
:103CA0005BF8002818BFFCF76BFE08B080BD000071
:103CB00080B540F2981044F200410C22C2F200009C
:103CC000C4F2000101604FF4165141600021C0E9C7
:103CD00002110161C0E90911C0E90711C0E905211C
:103CE000FFF74CFB002818BFFCF74AFE40F2981083
:103CF0000021C2F20000FFF7F9FA002818BFFCF714
:103D00003FFE40F298100021C2F20000FFF7A6FA31
:103D1000002818BFFCF734FE40F29810C2F20000F1
:103D2000FFF780FA00281CBFBDE88040FCF728BEE2
:103D300080BD0000FEE70000FEE7000010B5002097
:103D40000021002400F004FA0020102100F000FA05
:103D50000020B02100F0FCF94020002100F0F8F92B
:103D6000601C44B2B4F1FF3FF6DC002000210024C7
:103D700000F0EEF90020102100F0EAF90020B12156
:103D800000F0E6F94020002100F0E2F9601C44B2A6
:103D9000B4F1FF3FF6DC00200021002400F0D8F948
:103DA0000020102100F0D4F90020B22100F0D0F959
:103DB0004020002100F0CCF9601C44B2B4F1FF3F78
:103DC000F6DC00200021002400F0C2F900201021C0
:103DD00000F0BEF90020B32100F0BAF94020002124
:103DE00000F0B6F9601C44B2B4F1FF3FF6DC10BD40
:103DF00080B56420FDF718F90020AE2100F0A8F985
:103E00000020D52100F0A4F90020802100F0A0F9C5
:103E10000020A82100F09CF900201F2100F098F953
:103E20000020D32100F094F90020002100F090F947
:103E30000020402100F08CF900208D2100F088F94D
:103E40000020142100F084F90020A12100F080F965
:103E50000020C82100F07CF90020DA2100F078F978
:103E60000020002100F074F90020812100F070F999
:103E700000208F2100F06CF90020D92100F068F9B2
:103E800000201F2100F064F90020DB2100F060F920
:103E90000020402100F05CF90020A42100F058F936
:103EA000FFF74CFF0020AF2100F052F96420BDE87D
:103EB0008040FDF7B9B8000080B58AB040F27001CB
:103EC0000020CDE90800CDE90600CDE90400CDE9E8
:103ED0000200CDE90000C2F20001CA78C82A3AD334
:103EE000C87008784A7882421CBF4870FFF726FFE6
:103EF00040F28000C2F200000178012906D1438817
:103F000005A816A118A2FCF705FA0BE000208DF811
:103F10001A0042F62D50ADF8180043F64C20C2F6B8
:103F20002D500590642005AA00211023ADF808004B
:103F300045F22030C6F66560019047F24150C6F662
:103F400074700090002000F0DBF86A460020022127
:103F5000102300F0D5F80AB080BD00BF2573204CB7
:103F60003A25347500000000545800002DE9F04156
:103F700006460C461F46154670B2B0F1FF3F4FF0A3
:103F80000000DCBF0234002606F00F08414600F0B6
:103F9000DFF8102040EA16160020314600F0D8F86D
:103FA00004F1B000C1B2002000F0D2F8A5F1200069
:103FB000102FC5B27ED144F6D0172801C0F60007F5
:103FC000395C402000F0C4F8012040EA0510395C5B
:103FD000402000F0BDF8022040EA0510395C402086
:103FE00000F0B6F8032040EA0510395C402000F0EC
:103FF000AFF8042040EA0510395C402000F0A8F832
:10400000052040EA0510395C402000F0A1F80620A8
:1040100040EA0510395C402000F09AF8072040EA99
:104020000510395C402000F093F85FFA88F1002019
:1040300000F08EF8F1B2002000F08AF804F1B1002F
:10404000C1B2002000F084F8082040EA0510395C75
:10405000402000F07DF8092040EA0510395C40203E
:1040600000F076F80A2040EA0510395C402000F0A4
:104070006FF80B2040EA0510395C402000F068F82A
:104080000C2040EA0510395C402000F061F80D205A
:1040900040EA0510395C402000F05AF80E2040EA52
:1040A0000510395C402000F053F80F2040EA05105D
:1040B000395C20E005EB450444F2A8754020C0F6C9
:1040C000000515F8141000F043F805EB44074020F4
:1040D0007978BC78FD783E7900F03AF840202146A6
:1040E00000F036F84020294600F032F840203146F2
:1040F00000F02EF879794020BDE8F04100F028B8B2
:104100002DE9F047154698460E4607462A78002ABC
:1041100008BFBDE8F08700244FF008094FF0020AFD
:10412000F8B2F1B2D2B24346FFF720FF07F1080020
:104130000134C0B27928E0B226BF5AFA86F60027C9
:1041400059FA87F72A5C002AEAD1BDE8F087000017
:1041500080B582B08DF806000A208DF807100DF1A9
:10416000060278210223009040F2EC00C2F2000027
:10417000FDF7F6F802B080BD7047000040F2401035
:10418000C2F20000FEF7C8BB7047000080B5FDF723
:104190005FFA40F27200C2F200004178C7299CBF6A
:1041A00001314170017809299CBF0131017080BD46
:1041B0007047000040F24C10C2F20000FEF762BFF0
:1041C000816A11F0010F38D18A0741D44A074AD4D5
:1041D0000A0753D4CA065CD48A0608D502689368D5
:1041E000D0F840C023F4005343EA0C03936080B539
:1041F0004A0615D5D0F800E0DEF804C0436C2CF474
:104200008012B3F5801F42EA0302CEF8042007D1E2
:10421000DEF80420836C22F4C0021A43CEF8042096
:104220000906BDE8804058BF704701684A68C06C05
:1042300022F4002210434860704702685368D0F8A7
:104240002CC023F4003343EA0C0353608A07BDD526
:1042500002685368D0F830C023F4803343EA0C037B
:1042600053604A07B4D502685368D0F834C023F4C9
:10427000802343EA0C0353600A07ABD502685368F6
:10428000D0F838C023F4004343EA0C035360CA0655
:10429000A2D502689368D0F83CC023F4805343EA67
:1042A0000C0393608A0699D4A1E70000F0B581B0B1
:1042B000044646F6F31140F2880E2368E769A068C9
:1042C000D4E90426CCF6FF71C5F6000E1D68104334
:1042D00040F68002304348F20006C0F20402384340
:1042E000C4F20006B34201EA05014FF2FF4540EA7D
:1042F0000100C1F2FF1518605868E16820F44050D1
:1043000040EA01005860A0691CBF216A084399680F
:104310002940084344F200419860C4F20001D86A81
:10432000D4F824C08B4220F00F0040EA0C00D86281
:1043300042F20040C0F2F40011D0B34219D043F66B
:104340000001C4F201018B421FD1DEF800104FF4CE
:104350004045013265F39F0101F550250DE0DEF87F
:10436000001001F00C0141F4402101F550118D08BD
:1043700003E0DEF80010C1F3812505EB85016FF342
:104380001F526FF31F51CA4000E0102202F01F02BB
:104390000121B34211D0B7F5004F1ED1082A00F217
:1043A000B780DFE802F005606EB566B5B5B56C00A4
:1043B000FDF720FC002859D15FE0082A00F2A88010
:1043C000DFE802F005A622A61AA6A6A62000FDF7A1
:1043D00011FCA8B1D4F824C016E0082A00F2988095
:1043E000DFE802F0056F7D96759696967B00FDF7E7
:1043F00001FC002868D16EE0FDF734FC0028E9D10B
:10440000002185E04FF4004044F280716568C0F6F9
:10441000000131F81C20012105EB4507B0FBF2F348
:10442000BB4275D32F03BB4272D800210023FBF798
:10443000F9FE09022A46002341EA1061000210EB4E
:10444000550041F10001FBF7EDFE4FF6FF42A0F5EC
:104450004071C0F20F02914203D82168C860002168
:1044600056E0012154E0FDF7E1FB30B1D4F824C05F
:1044700007E0FDF7F7FB0028F8D1002148E04FF4F2
:10448000004044F28071C0F6000131F81C10B0FB0E
:10449000F1F061684A0802EB40004FF6EF72B0FBA2
:1044A000F1F0A0F11001914209D84FF6F0710140EE
:1044B000C0F3420008432168C860002128E00121C0
:1044C00026E0FDF7B3FB30B1D4F824C007E0FDF7D8
:1044D000C9FB0028F8D100211AE04FF4004044F253
:1044E00080714FF6EF72C0F6000131F81C10B0FB7E
:1044F000F1F0616800EB5100B0FBF1F0A0F11001A8
:10450000914204D8216880B2C860002100E00121F6
:104510000120A4F86A00A4F868000020C4E91D0086
:10452000084601B0F0BD00002DE9F04104460D46FB
:104530001E462068C1692940491BB1FA81F14F0923
:10454000974228D1DDF81880B8F1000F27D018F174
:10455000010109D1C1692940491BB1FA81F1490919
:1045600091EA070FF6D016E0FCF756FE801B404597
:1045700018D82068016811F0040F1CBFC16911F43C
:10458000006F29D1C0692840401BB0FA80F0400973
:1045900090EA070FE8D00020C0B2BDE8F081FCF738
:1045A0003BFE00BF206850E8000F216820F4D07067
:1045B00041E80002002AF5D1206850E8020F216886
:1045C00020F0010041E80202002AF5D12020C4F8C1
:1045D000880004F18C001EE04FF40061016200E0ED
:1045E000206850E8000F216820F4D07041E80002F4
:1045F000002AF5D1206850E8020F216820F0010060
:1046000041E80202002AF5D12020C4F88800C4F84D
:104610008C0004F1900020210160002084F88400C7
:104620000320C0B2BDE8F081FEE70000B0B59AB04B
:10463000FDF718F808AC4421201DFBF792FF40F26B
:10464000004000250122CDE90655CDE90455CDE90C
:104650000255C5F60000016862F34A210160006856
:1046600000F4C0600190019820200890B020CDE9AE
:104670001025CDE912052046FDF778FB18B1EFF3C0
:10468000108072B6FEE74F20CDE90655CDE90455FE
:104690000221CDE9020502A8FDF792F918B1EFF366
:1046A000108072B6FEE7FFF739FAFFF7F7F9FFF768
:1046B00077FAFFF7BDFAFFF7FBFAFFF7A9FAFCF765
:1046C000FDF800BFFFF7F8FBFEF7ECFFFFF77CF902
:1046D000F8E730380A2801D20120704700207047DF
:1046E00001000000030000000500000001000000C0
:1046F00001000000060000000A0000002000000089
:10470000020000000400000008000000100000008B
:1047100040000000800000000001000000020000D6
:104720000000000000000000000000000000000089
:10473000010000000200000003000000040000006F
:10474000A0860100400D0300801A060000350C0011
:1047500040420F0080841E0000093D0000127A00D4
:104760000024F40000366E010048E801006CDC0211
:104770000000000000000000000000000000000039
:10478000010002000400060008000A000C001000EE
:10479000200040008000000101010103070100002A
:1047A00008040204080101010000000000000000EC
:1047B000002F000000000700070000147F147F1482
:1047C00000242A7F2A120062640813230036495508
:1047D000225000000503000000001C2241000000E0
:1047E00041221C000014083E08140008083E080876
:1047F000000000A0600000080808080800006060D1
:104800000000002010080402003E5149453E00000F
:10481000427F4000004261514946002141454B31F1
:10482000001814127F10002745454539003C4A49BD
:10483000493000017109050300364949493600062F
:104840004949291E00003636000000005636000097
:104850000008142241000014141414140000412212
:10486000140800020151090600324959513E007CEA
:104870001211127C007F49494936003E41414122D4
:10488000007F4141221C007F49494941007F0909BD
:104890000901003E4149497A007F0808087F00006D
:1048A000417F4100002040413F01007F0814224128
:1048B000007F40404040007F020C027F007F0408E0
:1048C000107F003E4141413E007F09090906003E3C
:1048D0004151215E007F0919294600464949493165
:1048E0000001017F0101003F4040403F001F204088
:1048F000201F003F4038403F006314081463000746
:104900000870080700615149454300007F4141009C
:1049100000552A552A55000041417F00000402013C
:10492000020400404040404000000102040000201A
:1049300054545478007F4844443800384444442058
:1049400000384444487F00385454541800087E0905
:1049500001020018A4A4A47C007F080404780000CD
:10496000447D4000004080847D00007F102844008A
:104970000000417F4000007C04180478007C08049B
:10498000047800384444443800FC242424180018D7
:10499000242418FC007C08040408004854545420C3
:1049A00000043F444020003C4040207C001C20404C
:1049B000201C003C4030403C004428102844001C8F
:1049C000A0A0A07C004464544C4414141414141487
:1049D00000000000000000000000000000000000D7
:1049E000000000F80000000000000033300000006C
:1049F00000100C06100C0600000000000000000073
:104A000040C07840C0784000043F04043F040400E4
:104A1000007088FC08300000001820FF211E0000F4
:104A2000F008F000E018000000211C031E211E0009
:104A300000F00888700000001E212324192721108F
:104A400010160E0000000000000000000000000032
:104A5000000000E0180402000000000718204000D9
:104A600000020418E00000000040201807000000C9
:104A7000404080F0804040000202010F010202002D
:104A8000000000F0000000000101011F0101010011
:104A9000000000000000000080B070000000000076
:104AA00000000000000000000001010101010101FF
:104AB0000000000000000000003030000000000096
:104AC000000000008060180400601806010000006B
:104AD00000E010080810E000000F102020100F0068
:104AE000001010F8000000000020203F20200000EF
:104AF0000070080808887000003028242221300047
:104B000000300888884830000018202020110E004E
:104B10000000C02010F8000000070424243F2400F7
:104B200000F80888880808000019212020110E00CC
:104B300000E0108888180000000F112020110E00DE
:104B400000380808C83808000000003F00000000D6
:104B50000070880808887000001C222121221C0097
:104B600000E010080810E0000000312222110F00C0
:104B7000000000C0C0000000000000303000000055
:104B800000000080000000000000806000000000C5
:104B900000008040201008000001020408102000DE
:104BA0004040404040404000040404040404040029
:104BB00000081020408000000020100804020100BE
:104BC000007048080808F0000000003036010000BE
:104BD000C030C828E810E0000718272423140B0071
:104BE0000000C038E0000000203C230202273820EB
:104BF00008F8888888700000203F202020110E00CF
:104C0000C0300808080838000718202020100800C5
:104C100008F808080810E000203F202020100F00AE
:104C200008F88888E8081000203F2020232018007A
:104C300008F88888E8081000203F200003000000E2
:104C4000C03008080838000007182020221E020083
:104C500008F808000008F808203F210101213F2042
:104C6000000808F8080800000020203F202000006D
:104C700000000808F8080800C08080807F0000005D
:104C800008F888C028180800203F20012638200096
:104C900008F8080000000000203F202020203000FD
:104CA00008F8F800F8F80800203F003F003F200017
:104CB00008F830C00008F808203F200007183F001F
:104CC000E01008080810E0000F10202020100F004E
:104CD00008F808080808F000203F21010101000041
:104CE000E01008080810E0000F18242438504F0086
:104CF00008F8888888887000203F2000030C302046
:104D000000708808080838000038202121221C0083
:104D1000180808F8080818000000203F20000000CC
:104D200008F808000008F808001F202020201F00B5
:104D30000878880000C83808000007380E01000015
:104D4000F80800F80008F800033C0700073C0300DF
:104D5000081868808068180820302C03032C302045
:104D60000838C800C83808000000203F20000000B4
:104D700010080808C838080020382621202018000C
:104D8000000000FE020202000000007F40404000E0
:104D9000000C30C000000000000000010638C00018
:104DA00000020202FE000000004040407F000000C0
:104DB00000000402020204000000000000000000E5
:104DC00000000000000000008080808080808080E3
:104DD00000020204000000000000000000000000CB
:104DE00000008080808000000019242222223F20C1
:104DF00008F8008080000000003F112020110E0004
:104E00000000008080800000000E11202020110092
:104E1000000000808088F800000E112020103F2044
:104E20000000808080800000001F222222221300C8
:104E3000008080F0888888180020203F2020000013
:104E40000000808080808000006B949494936000C8
:104E500008F8008080800000203F210000203F20D3
:104E600000809898000000000020203F20200000D3
:104E7000000000809898000000C08080807F0000C3
:104E800008F8000080808000203F24022D302000A0
:104E9000000808F8000000000020203F202000004B
:104EA0008080808080808000203F20003F20003F65
:104EB0008080008080800000203F210000203F2073
:104EC0000000808080800000001F202020201F0024
:104ED000808000808000000080FFA12020110E0053
:104EE0000000008080808000000E112020A0FF8044
:104EF000808080008080800020203F2120000100F1
:104F00000000808080808000003324242424190045
:104F1000008080E0808000000000001F2020000052
:104F20008080000000808000001F202020103F2093
:104F3000808080000080808000010E300806010023
:104F400080800080008080800F300C030C300F00C8
:104F500000808000808080000020312E0E312000F3
:104F6000808080000080808080818E701806010023
:104F700000808080808080000021302C2221300041
:104F800000000000807C020200000000003F404062
:104F900000000000FF00000000000000FF00000013
:104FA0000002027C800000000040403F0000000042
:104FB00000060101020204040000000000000000DD
:104FC000E04F0008000000201000000074010008FD
:104FD000F04F000810000020200800009001000899
:104FE00001000000100000000000000000093D006A
:0400000508000139B5
:00000001FF
